:100000000C945D000C9485000C9485000C94850084
:100010000C9485000C9485000C9485000C9485004C
:100020000C9485000C9485000C9485000C9485003C
:100030000C9485000C9485000C9485000C9485002C
:100040000C94F2020C9485000C94C0020C949A0259
:100050000C9485000C9485000C9485000C9485000C
:100060000C9485000C94850000000008000201003B
:100070000003040700000000000000000000000072
:10008000250028002B0000000000240027002A0083
:10009000040404040404040402020202020203032E
:1000A0000303030301020408102040800102040836
:1000B0001020010204081020970411241FBECFEF66
:1000C000D8E0DEBFCDBF11E0A0E0B1E0EEE4FAE0A1
:1000D00002C005900D92A231B107D9F721E0A2E14B
:1000E000B1E001C01D92A83BB207E1F710E0CDE5F9
:1000F000D0E004C02197FE010E941F05CC35D10736
:10010000C9F70E943C030C9425050C94000090E074
:10011000FC01EC55FF4F249180579F4FFC018491C7
:10012000882399F090E0880F991FFC01EA57FF4F50
:10013000A591B491FC01E458FF4F859194918FB73C
:10014000F894EC91E22BEC938FBF0895AF92BF929D
:10015000CF92DF92EF92FF920F931F93CF93DF9393
:100160006C017B018B01040F151FEB015E01AE18C2
:10017000BF08C017D10759F06991D601ED91FC91E4
:100180000190F081E02DC6010995892B79F7C50111
:10019000DF91CF911F910F91FF90EF90DF90CF9063
:1001A000BF90AF900895FC01538D448D252F30E012
:1001B000842F90E0821B930B541710F0CF96089574
:1001C00001970895FC01918D828D981761F0A28DA1
:1001D000AE0FBF2FB11D5D968C91928D9F5F9F7367
:1001E000928F90E008958FEF9FEF0895FC01918D1D
:1001F000828D981731F0828DE80FF11D858D90E08A
:1002000008958FEF9FEF08952FB7F894809117010D
:1002100090911801A0911901B0911A012FBF8093FC
:10022000230190932401A0932501B09326018BE133
:1002300091E00E94F60097FF26C02FB7F8948091B6
:10024000170190911801A0911901B0911A012FBFC7
:100250004091230150912401609125017091260164
:10026000841B950BA60BB70B40911F0150912001E9
:10027000609121017091220184179507A607B707A5
:10028000B0F28FEF9FEF0895FC01918D228D892FA1
:1002900090E0805C9F4F821B91098F73992708958E
:1002A0008BE191E00E94440121E0892B09F420E0D8
:1002B000822F089580E090E0892B29F00E94500160
:1002C00081110C9400000895FC01A48DA80FB92F92
:1002D000B11DA35ABF4F2C91848D90E001968F736E
:1002E0009927848FA689B7892C93A089B1898C918D
:1002F000837080648C93938D848D981306C00288DC
:10030000F389E02D80818F7D80830895EF92FF92A5
:100310000F931F93CF93DF93EC0181E0888F9B8D28
:100320008C8D98131AC0E889F989808185FF15C0E2
:100330009FB7F894EE89FF896083E889F989808105
:100340008370806480839FBF81E090E0DF91CF91D4
:100350001F910F91FF90EF900895F62E0B8D10E0F6
:100360000F5F1F4F0F731127E02E8C8D8E110CC065
:100370000FB607FCFACFE889F989808185FFF5CFB0
:10038000CE010E946401F1CFEB8DEC0FFD2FF11D2A
:10039000E35AFF4FF0829FB7F8940B8FEA89FB89ED
:1003A00080818062CFCFCF93DF93EC01888D88234B
:1003B000B9F0AA89BB89E889F9898C9185FD03C0C8
:1003C000808186FD0DC00FB607FCF7CF8C9185FFAD
:1003D000F2CF808185FFEDCFCE010E946401E9CF8D
:1003E000DF91CF91089590E0FC01E859FF4F2491EF
:1003F000FC01EC55FF4F3491FC01E057FF4FE491B5
:10040000EE23C9F0222339F0233001F1A8F4213082
:1004100019F1223029F1F0E0EE0FFF1FE458FF4FF1
:10042000A591B4918FB7F894EC91611126C03095E5
:100430003E233C938FBF08952730A9F02830C9F0A0
:10044000243049F7809180008F7D03C08091800027
:100450008F7780938000DFCF84B58F7784BDDBCF2B
:1004600084B58F7DFBCF8091B0008F778093B000F3
:10047000D2CF8091B0008F7DF9CF3E2BDACF3FB73E
:10048000F8948091130190911401A0911501B091FD
:10049000160126B5A89B05C02F3F19F00196A11D96
:1004A000B11D3FBFBA2FA92F982F8827BC01CD01BE
:1004B000620F711D811D911D42E0660F771F881F1D
:1004C000991F4A95D1F708958F929F92AF92BF924C
:1004D000CF92DF92EF92FF920E943F024B015C01AC
:1004E00080E4C82EDD24D394E12CF12C0E943F023D
:1004F000681979098A099B09683E7340810591054D
:10050000A8F321E0C21AD108E108F10888EE880EAC
:1005100083E0981EA11CB11CC114D104E104F104B4
:1005200029F7FF90EF90DF90CF90BF90AF909F9012
:100530008F9008951F920F920FB60F9211242F9350
:100540003F934F935F936F937F938F939F93AF935B
:10055000BF93EF93FF938BE191E00E946401FF91C1
:10056000EF91BF91AF919F918F917F916F915F912B
:100570004F913F912F910F900FBE0F901F901895A4
:100580001F920F920FB60F9211242F938F939F9368
:10059000EF93FF93E0912B01F0912C018081E0918A
:1005A0003101F091320182FD1BC0908180913401B4
:1005B0008F5F8F7320913501821741F0E0913401F4
:1005C000F0E0E55EFE4F958F80933401FF91EF914F
:1005D0009F918F912F910F900FBE0F901F901895A4
:1005E0008081F4CF1F920F920FB60F9211242F9398
:1005F0003F938F939F93AF93BF93809117019091F7
:100600001801A0911901B0911A013091120123E053
:10061000230F2D3758F50196A11DB11D209312010E
:100620008093170190931801A0931901B0931A01B8
:100630008091130190911401A0911501B0911601C0
:100640000196A11DB11D8093130190931401A093F5
:100650001501B0931601BF91AF919F918F913F917A
:100660002F910F900FBE0F901F90189526E8230F23
:100670000296A11DB11DD2CF789484B5826084BD4D
:1006800084B5816084BD85B5826085BD85B5816096
:1006900085BD80916E00816080936E001092810014
:1006A00080918100826080938100809181008160CF
:1006B0008093810080918000816080938000809190
:1006C000B10084608093B1008091B000816080931C
:1006D000B00080917A00846080937A0080917A00E3
:1006E000826080937A0080917A00816080937A00A2
:1006F00080917A00806880937A001092C100E09126
:100700002B01F0912C0182E08083E0912701F09190
:1007100028011082E0912901F0912A018FEC808359
:1007200010923301E0912F01F091300186E0808337
:10073000E0912D01F0912E01808180618083E09114
:100740002D01F0912E01808188608083E0912D0140
:10075000F0912E01808180688083E0912D01F091DD
:100760002E0180818F7D80838BE00E9487008DE049
:100770000E94870084E6882E912CA12CB12C03E7DF
:1007800010E0C0E0D0E08BE191E00E944401892BB1
:1007900009F4C0C00E940401FC0197FD6BC08D32BA
:1007A000910521F0C0970A9708F05CC0C12CD12CAC
:1007B0007601712CE130F105D9F0ED32F10509F443
:1007C00056C0CF01C0970A9798F4AAE0B0E0A701FD
:1007D00096010E94E3046F01FF0FEE08FF08C60EAA
:1007E000D71EE81EF91E80E3C81AD108E108F108F7
:1007F0008BE191E00E94E2000E940401FC01C0979D
:100800000A97C0F2E130F105A9F2772041F0F094A7
:10081000E094D094C094C11CD11CE11CF11CAFEF3A
:10082000B0E0A70196010E94E304A50194010E9493
:10083000C404F22EE32EC22ED32E8BE00E9487003A
:10084000C114D104D9F460E08BE00E94F301209739
:1008500009F499CF0E945001882309F494CF0E9493
:10086000000091CF8BE191E00E94E20093CF7724CA
:100870007394BECFC12CD12C7601D1CFEFEFCE1621
:10088000D10411F461E0E0CFF8018491833031F1BB
:1008900048F48130C9F08230E1F0F0E8CF16D1049D
:1008A0008CF7D1CF873031F1883061F18430A9F7EE
:1008B000809180008062809380008F2D9E2D909388
:1008C0008B0080938A00C3CF84B5806884BDF7BC59
:1008D000BECF84B5806284BDF8BCB9CF8091800062
:1008E0008068809380008F2D9E2D90938900809347
:1008F0008800ADCF8091B00080688093B000F09206
:10090000B300A5CF8091B00080628093B000F092D8
:10091000B4009DCF61E08DE00E94F3010E9464026B
:1009200060E08DE00E94F3010E94640290CFEBE151
:10093000F1E01382128288EE93E0A0E0B0E08483BD
:100940009583A683B78384E091E09183808385ECCF
:1009500090E09587848784EC90E09787868780EC89
:1009600090E0918B808B81EC90E0938B828B82EC7A
:1009700090E0958B848B86EC90E0978B868B118E24
:10098000128E138E148E0895052E97FB1EF400947C
:100990000E94DB0457FD07D00E94EE0407FC03D041
:1009A0004EF40C94DB0450954095309521953F4FC3
:1009B0004F4F5F4F089590958095709561957F4F4B
:1009C0008F4F9F4F08950E941005A59F900DB49FD3
:1009D000900DA49F800D911D11240895A1E21A2E5F
:1009E000AA1BBB1BFD010DC0AA1FBB1FEE1FFF1FD3
:1009F000A217B307E407F50720F0A21BB30BE40B23
:100A0000F50B661F771F881F991F1A9469F7609569
:100A10007095809590959B01AC01BD01CF01089523
:100A2000A29FB001B39FC001A39F700D811D11242F
:100A3000911DB29F700D811D1124911D0895EE0F1F
:0E0A4000FF1F0590F491E02D0994F894FFCF6C
:100A4E00000000008601A600D300D3014401E2009D
:020A5E00F600A0
:00000001FF
